:400000000040002011000000850500008505000008B500F093FD00F0D1FAC04638B512221A4B1A6001F048FE194802F019F8012001F062FE302001F00DFD164A164B1A60AA
:40004000164C8025ED052560154A116802230B431360144A144B1A600022144B1A60144A136808218B431360FA20C00001F05CFD104801F04FFD802212060F4B1A608022E6
:4000800012030E4B1A60256038BDC04630001040001BB7000600008004010B400C020B4078002E406A2D00007C002E4064F02E406CF02E40DC05000008010B4000010B40E3
:4000C00010B572B600222A4B1A60002410E0294863001A195200821891881B195B001A5AC31858880004104300F0CEFA0134E4B2012CECD9EE2212061F4B1A6099231B0471
:400100001E4A13601E4A13601E4A13601E4A13601E4B197802220A431A701D4802783C218A4328390A430270197816220A431A70D8231B04174A13602021174A1160C021B3
:400140008902164A1160C02215490A60B020C00314490860802000021349086013490A60134A1360FFF75AFF00F07EFA10BDC0466CF02E40545601000000024000500F4045
:4001800010500F4020500F4030500F4000700F4001700F4008000440000104400801044000020440080204400C020440000304400803044010B5064C2378002B07D1054B24
:4001C000002B02D0044800E000BF0123237010BDC0120020000000000C52010008B5084B002B03D00748084900E000BF07480368002B00D108BD064B002BFBD09847F9E774
:40020000000000000C520100C4120020C00C00200000000038B5124B1B78023B012B1ED8032003F0E5FA051C01F023FF041C032D0CD103F0CCFC042803D003F0C8FC06284C
:400240000AD101F0A9FC00F071F905E003F0BFFC022801D001F092FC201C01F00EFF38BD5825002030B585B0041C0D1C5248211C02F0E6F94F2C00D99CE0A4004F4B1B594D
:400280009F46002000F0BAFF94E04D4802F054FA90E029786A78AB78E8780090494802F0CFF987E0484802F047FA83E02968474802F0C6F97EE0464802F03EFA7AE045489B
:4002C00002F03AFA76E02978434802F0B9F971E0424B1978424802F0B3F96B88062B0FD902A906230B804B8000238B806433CB803C4B18780CF0EEF9011C3B4802F0A0F9B0
:40030000012000F0F5FA012038490DF0A9FE51E0374802F011FA002000F070FF011E49D0344802F08DF945E02978334802F088F940E02978314802F083F93BE0304B1B789A
:40034000042B37D12F4802F0F7F9002000F0D0FA002000F091FA002000F0A8F900F076FA00F03CFA00F02CFA01F042FC22E01B48291C022202F053F91CE00022174B1A70E6
:4003800018E0214802F0D8F914E000F09BF943425841C0B200F08AF9124A13785078000218430FF0E5FA00200FF096FA02E0174802F0C2F905B030BD50530100105201006E
:4003C000605301007C530100C0530100005401002C54010054540100645401001C2400208454010060250020AC54010040E20100E85401000C55010030550100545501005C
:4004000058250020805501009C550100BC55010000B585B00A4A13881B0492881343039303AB009304236A469380064B5B88138168460021002200230FF0D2FF05B000BDFE
:40044000FC5B0100B05A010010B500221B4B1A6000F022FE1A4C201C02F06EF9201C02F06BF9184802F068F9174802F065F9174802F062F9201C02F05FF9201C02F05CF99E
:4004800062B6012000F034FA012000F0F5F9012000F00CF90E4800F053FEFFF7B9FF00F027F803F0ADF9FFF7B5FE00F03FF8064802F042F900F0D6FDF3E7C0462024002091
:4004C00050540100D455010010560100245601006502000070B5161C002405E04D1C087801F04EFD0134291CB442F7DB301C70BD08B501F04FFC0C4800F02EF901200121FD
:4005000001F072FC0120012101F08AFC0120202101F0C0FC012001F019FD8020400001F09BFC01F029FC08BD6D05000008B50D4B1B78002B12D10C4A1368013B1360002B55
:400540000FD1FA239B001360107901235840107100F0CEF9012001F0C5FA02E0002000F0C7F908BD1C240020C40C002008B501F0BDFC430505D5FFF7D9FF8020C00001F0B3
:40058000BFFC08BDFEE7C04608B5031C094A1068C318094A9A1AC021C9008A4202DC054A136005E002F000F80C2303600120404208BDC046CC0C00207025002070B50F4E33
:4005C0000F4D13E029686B68AC68002202E001C901C30432A242FAD1E868002202E0002102C304328242FAD11035013E002EE9D101F0E0FFFFF728FFFEE7C0460100000079
:40060000F45C010008B5124A136801218B43136000230AE0032B03D89A000E49505800E00D4899000D4A885001332F2BF2D9FFF747FD00220A4B1A600A4B1B68002B01D16D
:40064000084B1A60024A116801230B43136008BD00001040000000008505000000000020C8000020C00000200323044A1360044A13600022034B1A607047C046300030408D
:4006800030003140000E3F4008B50A1C002101F0CFFF08BD034A1168034B0B40800418431060704708030440FFFFE3FF04490A68BF231A4080017F3B1840104308607047F0
:4006C00000030440024B18684006C00F7047C04604030440024B18684006C00F7047C04600030440034A136883430140194311607047C0460C030440034A106840231840B7
:4007000010608009C0B2704710030440014B18667047C0460000002010B5041C01F0A9FC044A1368C0218B43A4011C43146001F0A4FC10BD08E400E080225200014B1A604A
:400740007047C04600E100E080225200014B1A607047C04680E100E010B5041CFFF7F4FF201CFFF7D3FF0320FFF7D6FFFFF7E4FF10BDC0467047C046014B98647047C04615
:400780000000002010B5041C01F073FC044A1168044B0B40A4051C43146001F06EFC10BD00E400E0FFFF3FFF0422014B1A60704700E100E00422014B1A60704780E100E087
:4007C00008B5FFF7F7FF0448FFF7D6FF0320FFF7D9FFFFF7E9FF08BD750700000422014B1A60704780E200E0034A1168034B0B40400518431060704708020440FFFF1FFFB4
:40080000044A11687F230B40C001C0B2184310607047C04600020440024B18680006C00F7047C04604020440024B18680006C00F7047C04600020440034A136883430140E6
:40084000194311607047C0460C020440034A1068802318401060C009C0B2704710020440034A1168034B0B40800418431060704708020440FFFFE3FF04490A68BF231A4096
:4008800080017F3B184010430860704700020440024B18684006C00F7047C04604020440024B18684006C00F7047C04600020440034A136883430140194311607047C046C6
:4008C0000C020440034A10684023184010608009C0B2704710020440034A1168034B0B40400518431060704708030440FFFF1FFF044A11687F230B40C001C0B2184310606B
:400900007047C04600030440024B18680006C00F7047C04604030440024B18680006C00F7047C04600030440034A136883430140194311607047C0460C030440034A1068F2
:40094000802318401060C009C0B2704710030440002306E04218013A12789B189BB2013989B20029F6D1584280B2704730B5002307E01C182478E4B2CD5CAC4205D101333D
:400980009BB29342F5D3002000E0022030BDC0460047C04608B58022024B1A6001F096F808BDC046C0000020F0B583B00D1C6B469E1DDA8001230B704870141CAA70130A16
:4009C000CB70171DB9B2281CFFF7C2FFE855631D000AE854A31D1722EA540734A1B2281C321C962300F0BCFE03B0F0BD70B5051C0E1C141C002802D0002001F065F80020DD
:400A000004E0013CAB191B5D1818C0B2002CF8D170BDC04608B50C2857D880003A4B1B589F46C9014942394B9C466144012351E0C9014942364B9C46614404234AE0C901E5
:400A40004942344B9C466144022343E0C9014942314B9C46614404233CE0C90149422F4B9C466144012335E0C90149422C4B9C46614401232EE0C90149422A4B9C4661449D
:400A8000022327E0C9014942274B9C466144022320E0C9014942254B9C466144022319E0C9014942224B9C466144042312E0C9014942204B9C46614401230BE0C901494220
:400AC0001D4B9C466144042304E0002000F0FCFF02230021012B02D10878C0B200E00020022B03D10A78487800021043042B0AD10A784B781B021A4388780004031C1343E0
:400B0000C8780006184308BD60560100C0FF0100C1FF0100C5FF0100C9FF0100D0FF0100D1FF0100D6FF0100D2FF0100D4FF0100D8FF0100DCFF0100E0FF010008B50D4BC3
:400B40001B68DB0602D400220B4B1A600A4B1B68802B0ED10022084B1A6002200021FFF759FF002805D002200021FFF753FFFFF70FFF08BD00030B40C000002070B5051CA2
:400B80000320291CFFF746FF441CE4010420291CFFF740FF24180320291CFFF73BFF0130C0010023002608E001784A1ED2B2FD2A00D801265B18DBB20130A042F4D35B42B6
:400BC000DCB20120291CFFF725FF844203D1002E03D1062002E0062000E0002070BDC046F0B55F4656464D464446F0B4CB4CA544051C00F09DFD62B600239B4600270A2427
:400C00009946002D01D1FF2300E02B1C52A896214900C34A02AEB446624400F0D5FD002D01D0013CE4B2002C01D00028E9D1002800D006E2BA4B02AA944663441B88062BDE
:400C400024D952AA1278012A22D152A9CA78120289780A439146111C07329A421AD896235B009A4218D84A1D52AB9E5C3202081D1E5C164306315B5C172B0FD181B252A882
:400C8000FFF766FEB0420BD100260AE0042608E0042606E0032604E0032602E0042600E00826002E00D075E152AB1A7992465A78131C313BD9B2142900D93FE18B00994933
:400CC000CB589F46012F00D066E14B46002B00D065E10020FFF752FF4342434152AA13710122A7E1012F00D05CE14B46032B02D0832B00D059E152AA93791B02527913436C
:400D000098464B46032B08D0DA1E07A84821FF3102AB9C46614401F082FC5346012B00D946E158024044C0017F4B984500D90A26002E00D03FE107A98022FFF717FE061CAA
:400D4000002277E1012F00D037E14B46012B00D036E15346012B00D935E1744B1A6813689278924502D11B04DB0D05E0924501D9002301E080239B0052AA13711B0A5371D1
:400D8000FF239371FE3BD371042253E1342A0DD1012F00D01AE14B46032B00D019E107A800214C3201F044FC80239B46012F00D012E14B46022B00D811E107A85844DA1EB5
:400DC0004821FF3102AB9C46614401F028FC5B464B449BB2832B00D004E152AA93791B02527913439B46504B9B4500D90A26002E00D0FEE053465802584480B24B4B1B68D0
:400E00001A68D3099BB2520601D001339BB2984200D2F2E007A900F083FD002800D00A2600239B4680339946002203E1012F00D105E104260022FDE0012F00D0E4E05B4686
:400E40004B4496225200934200D9E0E007A8584453A94A4601F0E3FB5B464B449BB29B460022E7E04B46002B00D0D3E004AA304B03CB03C253AA04AB03CB03C200239B4640
:400E800001270822D6E0012F00D0C6E04B46032B00D0C5E052AA93791B02527913439846534659024144C9011F4B984500D90A26002E00D0B7E000208022FFF797FD019027
:400EC00053465B0243449BB25246012A11D1194A93420ED105200021FFF79CFD019B1B1ADBB2984606200021FFF794FD43461B1AD8B2424252AB1A7101229BE00020FFF785
:400F00003DFE002802D180220B4B1A6000F012FC00F0DCFD042600228CE0C04684FDFFFF6E02000094560100FF010000D00C0020E8560100FF030000C0000020484B1B6877
:400F4000002B72D0012F73D102A90A700A1C4946518053AA039200210491059104AE069202A8311C9847B2882623FF339A4203D953AB0699994207D0069B002B01D1002A63
:400F800005D1049BDEB255E00E26002252E00E2600224FE000224DE0042600224AE00426002247E00426002244E00426002241E0092600223EE000223CE00426002239E0C3
:400FC0000426002236E00426002233E00426002230E0042600222DE0042600222AE00426002227E000239B46803399460326002220E08023994600221CE000239B4680339A
:4010000099460A26002215E00426002212E0032600220FE0042600220CE00426002209E00426002206E0002204E00526002201E005260022301C52A9FFF7B6FC01E00023FF
:401040009B46002D00D1DCE5012F00D1D9E59F239B009D443CBC90469946A246AB46F0BDDC12002008B50020FFF788FD002801D0062200E00022074B1B68402B01D0002ADC
:4010800005D00022034B1A600020FFF7A9FDFFF781FC08BDC00000207047C04670B5002905D11A4CE67F0023002200250FE0184CE67FF8E7E25C002A0DD00133DBB2E15CAD
:4010C0000839012902D99B18DBB200E00125B34201D2002DEED0002D16D0D218D1B20133DBB21A1C02E0A5540132D2B28A4209D2D51A455D002DF6D104E0A3180020187035
:401100000132D2B29142F8D870BDC046E40C0020E012002008B500F08BFA08BD08B50023044A1370044A1370044A1370FFF7F2FF08BDC046632500205C2500206225002014
:4011400010B590B0041C0BA82049142201F067FA20231F4AD35C002B05D1FFF7DFFF012120231B4AD154002C2CD01A4B1C6008A805AA426006AB0893002101811B31198029
:40118000598017391971002313701231694402F0EFF9002817D1052300930023019302930D480E49AE2212010BAB02F04FFA002809D101220A4B1A700A4827218F320FF017
:4011C000F7F800E0012010B010BDC046F0560100E01200204C25002005140000D0000020582500200457010008B502F0D3FA0022014B1A7008BDC0465825002008B50228BD
:401200002ED81B4B1B78042B2CD11A4B1B785B072BD4002809D1184B00221A862032596A0A805B6A10325A800CE001280AD1124B96221A86C822D200596A0A805B6A80226E
:40124000D2015A800D4B18700B4820300DF0B0F900280CD1074A117804230B43137006E0012004E00420FF3001E00420FF3008BD5825002063250020E40C0020622500208E
:4012800008B50DF047FA034A117808230B43137008BDC046632500207047C04610B500281DD0104B9A6B5468998EC9B2002302E0E2540133DBB28B4202D2C25C002AF7D1EC
:4012C0008B4202D2E31800221A70041C0021FFF7E5FE201C0121FFF7E1FE002000E0012010BDC0460457010010B5002812D00A4B9B6B5C681978002302E0C2540133DBB2AE
:401300008B4202D2E25C002AF7D1C31800221A70002000E0012010BD0457010003784078000218437047C0460170090A4170704738B583890B2B20D1041C04300021221CFF
:4013400035330FF04DF8051E11D16068FFF7E6FF830706D50A4B1B6882204000211C984705E0074B1B680620FF30211C9847054A137801218B43137000E00025281C38BD28
:401380004C25002063250020024B00225A701A707047C0466025002010B582B0041CFFF7C7FF0E4B1B78DB0702D5201C00F042F90A4B1B78DB070ED4002809D001A9122364
:4013C0008B70A3890B80C87020680EF035FA02E020680EF0CDFA02B010BDC046632500208379002B07D000200BE0C25C002A07D10133DBB200E00023052BF6D9002000E006
:4014000001207047F0B583B0051C0C1C794A117801230B431370502800D9DAE08300764AD3589F4601AE0727377000237370301C02F03CFA377001237370301C02F036FAFA
:401440006E4B1E68301CFFF7CBFF00280CD0301C02F0DAF9694E30680021FFF71DFF30680121FFF719FF25E0654B1B78654A12783F210A4092010B401343634A12782039D3
:401480000A4012031343614A127860310A40520413435F4E33701A0A72701B0CB370301C02F0B2F9301C0021FFF7F6FE301C0121FFF7F2FE00200CF02BFF01A83F230370C3
:4014C000002343700CF042FF0422524B1A7080E02278514B1A707CE02378002B79D16378002B07D14D4B0822DA8088329A804C4A1A6063603F4A137801218B43137068E090
:401500003C4B1B789B0664D4464B1B78102B02D10522444BDA70444B187842490DF008F8344A117801230B43137052E00222394B1A704EE00422374B1A704AE0354B1B78E2
:40154000022B46D02B4A1278D20742D5294A1278520708D503222F4B1A70264A137804218B43137035E0234A1278120708D50422284B1A701F4A137808218B43137028E0D1
:40158000032B26D10422234B1A7022E02648211C022201F044F800221F4B1A7019E0FFF7F3FE16E06188162900D9172120880EF04DF90EE0201CFFF7EFFE0AE00D4B1B78F7
:4015C000DB0706D5201C00F073F802E0201C00F087F8084B1A7811231A4209D0054A137801218B431370114B1B68281C211C984703B0F0BD63250020B85A0100180D0020D0
:401600007CF1FF0F7DF1FF0F7BF1FF0F78F1FF0F1C0D0020582500205C25002004130020B00B0020540F0020602500204C2500207047C04610B5021C8389272B12D1BA23B2
:401640009B001749CB58DB0405D50430002140230EF0C6FE00E00620124A137801218B4313701CE0262B19D1043000211A330EF0B7FEBD239B000A4AD3585A680A4B1A60A2
:40168000D3781B029278094C1343073323800121A170044A13788B43137000E0002010BD0457010063250020642500200C13002008B543681B89262B0DD1037A012B05D160
:4016C00001200EF009F90022034B1A80034A137801218B43137008BD0C1300206325002043681A89262A1BD1427A012A13D11A680C4B1A60D3781B029278134307339BB2D1
:40170000094A13800822FF32934201D9064B1A800122054B9A70054A137801218B4313707047C046642500200C130020632500207047C04608B5084B18780CF079FC0028C1
:4017400002D005E002F05CF8044B1B78022BF9D0FFF74AFD08BDC0466025002058250020F0B585B0061C0C1C151CC2239B00144AD3585868FFF7D2FDC3071ED5BD239B002F
:401780000F4AD3585F68381C311C221C00F047FF01A98C80019726230B810A4A13785078000218430EF086F8002801D12C8005E000232B800120404200E0042005B0F0BDC4
:4017C0000457010060250020F8B5071C0D1C161C64225A43141C1DE002F012F8114B9B78012B13D10F4B00229A701A88AA4209D20D4B1968381C00F012FF0A4B1B8833802A
:4018000000240AE000233380062406E0642000F081F9643C002CDFD1103401F0F1FF201CF8BDC0460C1300206425002082B0104B0093104B043301930F4B6A461A600F4924
:401840000F4A1160C0461B681B0F0F2B04D10A4B1B68FF20184008E0074B1B681B0F0A2B02D0054B186800E0002002B07047C046B6E9000010130020080010401600008090
:40188000040010400C4B0D4A1A600D490D4A1160C0461B681B0F0F2B04D1074B1B68FF20184008E0044B1B681B0F0A2B02D0024B186800E00020704708001040B6E800001B
:4018C000150000800400104082B0104B0093104B043301930F4B6A461A600F490F4A1160C0461B681B0F0F2B04D10A4B1B68FF20184008E0074B1B681B0F0A2B02D0054BC4
:40190000186800E0002002B07047C046B6EA00001013002008001040170000800400104030B5A5B0002323932293374B984265D8002963D0041C02A8802200F070FE334B8D
:401940009C4201D9324B00E0324B00937F230193314B6A461A603149314A1160C0461B681B0F0F2B04D12C4B1B68FF22134008E0294B1B681B0F0A2B02D0274B1B6800E0EB
:4019800000232393239B002B3AD100F072FB051CFFF74CFF2290229B002B02D1FFF772FF2390239B002B1FD11E4B0093009B200418430090184B6A461A601B49184A1160D1
:4019C000C0461B681B0F0F2B04D1134B1B68FF22134008E0104B1B681B0F0A2B02D00E4B1B6800E000232393229B002B02D1FFF76BFF2290281C00F040FB01E0042323934A
:401A0000239825B030BDC046FF030000FF010000B6D70001B6D70000080010400400008004001040B6D800000500008010B5041C00F01FFB07231C40E40404490B68044A58
:401A4000134023430B6000F018FB10BD00010B40FFFFC7FF10B586B0041C00F00AFB0E4B1B6800930D4B1B680193033C0C4B1B5D02930C4B1B68039304AA0B4B04936B4615
:401A800005930A4B1A600A490A4A11601B6800F0F4FA06B010BDC04608010B4000010B40045C010030001040B6EA0000080010401700008004001040024B1B680120184010
:401AC0007047C0460C002E4001BE7047034A13681B041B0C02490B43136070470CED00E00400FA0510B5041C06E0084B186800F0B7FA074B9C46644480231B029C42F4D807
:401B0000024B5868604300F0ABFA10BD5C0F00200080FFFF08B5034B1B7A584300F0A0FA08BDC0465C0F002010B5041C0F4A116801230B4313600E4A0E4B1A600E4A1368D5
:401B4000802109020B431360002809D100200CE00120FFF7DFFFFFF7AFFF002804D1013C002CF5D1102000E0002010BD60F02E400220000078002E4010002E4008B500F037
:401B800078FA044A136804218B43136030BF00F074FA08BD10ED00E030B583B000F069FA041C0E4A13685B005B0813600C4B1B889BB20C4A13600C4A116804230B4313603F
:401BC0000A4D2B6801930220FFF730FF30BF019B2B60201C00F051FA03B030BD00000B4052F1FF0F0C000B4010ED00E000010B4008B500F03EFA1F4A13689B009B0813605D
:401C00001D4A13689B009B0813601C4A13689B009B0813601A4A13689B009B081360194A13689B009B081360174A13689B009B081360164A13689B009B081360144A13686E
:401C4000802109060B431360124B1B889BB2124A1360124A116804230B43136010490B68FF2293430E3A13430B6030BF00F005FA08BDC046080004400801044008020440BE
:401C80000803044008040440080504400806044000000B4050F1FF0F0C000B4010ED00E02C000B40034B1868C0231B02184000D00120704700010B4010B50D4B1A680121C2
:401CC0008A431A601A68022082431A60094A10683024A043203C204310601068093CA043014311601A68802109060A431A6010BD00F02E4000FF2E4038B51D4B1B680124A6
:401D00001C40002802D0012816D02BE0184B19680122914319601968022081431960154B19682E3081432038014319601968093881430A431A6018E00D4B1A6802218A43D8
:401D40001A600C4A10680725A84301431160116830208143103801431160196801220A431A6002E00020FFF7AFFE201C38BDC04600F02E4000FF2E4008B500F07AF9044A45
:401D80001368C02109020B43136000F076F908BD00010B4010B500F06CF908490A68084B1A408024E40122430A600A6813408022120213430B6000F060F910BD00010B400B
:401DC000FF3FFFFF10B5041E022C02D90020FFF77BFE044B1868E4000134E040041C0120204010BD10020B4038B5041C0D1C022802D90020FFF768FE201CFFF7E3FF002862
:401E00000BD1064A1368E4000321081CA04083430D40A5402C1C1C43146038BD0C020B4038B5041C0D1C012802D90020FFF74CFE201CFFF7C7FF00280AD106490B68E40053
:401E400002340122A2409343A5402C1C1C430C6038BDC0460C020B4010B5041C0C4A136803431360C30704D50020FFF7ABFF0028FAD0E30504D50120FFF7A4FF0028FAD0D4
:401E8000E30304D50220FFF79DFF0028FAD010BD10020B4038B5041C0D1C012802D90020FFF712FE0E4B1B689B0F01D1C92000E05D20FFF72FFE0B4A106824010A4BA34048
:401EC0009843031C281CA04018431060044B1B689B0F01D1432000E01F20FFF71BFE38BD0C020B4008020B40FFFF0000024B1868024B18407047C04610020B4004040400E1
:401F000070B5061C00F0B5F8041CFFF7CBFE002803D0FFF73FFF012500E000250848331C0340084A106808490840184310601368012D01D1FFF720FF201C00F09EF870BDF5
:401F40000404040010020B40FBFBFBFF054A1168054B184008431060024B1A68024B1A42FAD1704710020B400808080000000000000000000000000000000000000000006E
:401F8000FEB5494652465B460EB407462E4909688A462E4A12682E48022100F083F903002A480068C0182A4900F07CF906001F3EB346234A126801219140C9430C000125E7
:401FC000002600F056F8814651460B6823400B605846043000F044F83800F040284090400B68234003430B60584600F039F80136072EF1D900200130012090400B682340AC
:4020000003430B605846063000F02AF8484600F034F8C046C046C0460EBC894692469B46FEBDC046C046C046C046C046C046C046C046C046C046C046C046C046C046C046E6
:40204000E00C0020DC0C0020D80C0020680F002000C20100C046C046C046C046C046C0460230800803D00138FDD1C046C046C0467047EFF3108072B6704780F3108870475A
:402080000160704701607047324B1A781202324B1B781A43314B1B781B02314909780B4330498B4201D1072A06D0D42109018B4206D1042A04D102E02B4B042200E02A4B53
:4020C0002A490B602A4B1A602A4B1B781B022A4A1278134380229201934202D0002B02D002E0264B00E0254B254A1360254B1B781B02254A12781343244A934205D0244A47
:40210000934204D0052B05D103E0224B02E0214B00E0204B204A1360204B1B681B09204A1268AA2A15D1012B13D9164B1B780E2B0FD11C4B1B781B021B4A127813431B4A94
:4021400013601B4B1B781B021A4A127813431A4A13607047D9F0FF0FD8F0FF0FDFF0FF0FDEF0FF0F580B0000580D00006C002E4074002E40DBF0FF0FDAF0FF0F0220000047
:4021800078002E40DDF0FF0FDCF0FF0F0F0F000005050000050F000080002E40EC0F00F0E00F00F06DF2FF0F6CF2FF0F84002E406FF2FF0F6EF2FF0F94002E4008B5FFF733
:4021C000A9FC08BD08B500F04BF808BD08B500F04FF808BD08B500F04BF8034800F02AF8032000F02DF808BD9D22000008B5024800F046F808BDC0469D2200000220FF30EE
:402200007047C0462B2070472B2070472B2070472B2070472B2070472B2070472B2070472B2070472B2070472B2070472B2070477047C046014B18677047C0460000002066
:4022400010B5041CFFF715FF044A1368C0218B43A4011C431460FFF710FF10BD0CE400E080225201014B1A607047C04600E100E080225201014B1A607047C04680E100E0EB
:4022800010B5041CFFF7F4FF201CFFF7D3FF0320FFF7D6FFFFF7E4FF10BDC04608B512F0A1FF08BD002243088B4274D303098B425FD3030A8B4244D3030B8B4228D3030C2C
:4022C0008B420DD3FF22090212BA030C8B4202D31212090265D0030B8B4219D300E0090AC30B8B4201D3CB03C01A5241830B8B4201D38B03C01A5241430B8B4201D34B0359
:40230000C01A5241030B8B4201D30B03C01A5241C30A8B4201D3CB02C01A5241830A8B4201D38B02C01A5241430A8B4201D34B02C01A5241030A8B4201D30B02C01A524166
:40234000CDD2C3098B4201D3CB01C01A524183098B4201D38B01C01A524143098B4201D34B01C01A524103098B4201D30B01C01A5241C3088B4201D3CB00C01A52418308F7
:402380008B4201D38B00C01A524143088B4201D34B00C01A5241411A00D20146524110467047FFE701B5002000F0FCF802BDC0460029F7D003B5FFF775FF0EBC4243891A63
:4023C0001847C04603460B437FD4002243088B4274D303098B425FD3030A8B4244D3030B8B4228D3030C8B420DD3FF22090212BA030C8B4202D31212090265D0030B8B4297
:4024000019D300E0090AC30B8B4201D3CB03C01A5241830B8B4201D38B03C01A5241430B8B4201D34B03C01A5241030B8B4201D30B03C01A5241C30A8B4201D3CB02C01A00
:402440005241830A8B4201D38B02C01A5241430A8B4201D34B02C01A5241030A8B4201D30B02C01A5241CDD2C3098B4201D3CB01C01A524183098B4201D38B01C01A524166
:4024800043098B4201D34B01C01A524103098B4201D30B01C01A5241C3088B4201D3CB00C01A524183088B4201D38B00C01A524143088B4201D34B00C01A5241411A00D2B7
:4024C00001465241104670475DE0CA0F00D04942031000D34042534000229C4603098B422DD3030A8B4212D3FC22890112BA030A8B420CD3890192118B4208D389019211BE
:402500008B4204D389013AD0921100E08909C3098B4201D3CB01C01A524183098B4201D38B01C01A524143098B4201D34B01C01A524103098B4201D30B01C01A5241C308EB
:402540008B4201D3CB00C01A524183088B4201D38B00C01A5241D9D243088B4201D34B00C01A5241411A00D20146634652415B10104601D34042002B00D54942704763465D
:402580005B1000D3404201B5002000F00BF802BD0029F8D003B5FFF715FF0EBC4243891A1847C0467047C046014B18687047C046B81200200E4B70B500251E1C0D4CE41A65
:4025C000A410A54204D0AB00F35898470135F8E713F07EFB084B00251E1C084CE41AA410A54204D0AB00F35898470135F8E770BDDC5C0100DC5C0100DC5C0100E45C010090
:4026000030B50024944208D0035D651C0C5DA34201D0181B02E02C1CF4E7002030BD002310B5934203D0CC5CC4540133F9E710BD031C8218934202D019700133FAE7704738
:402640000FB40B4B13B51C68002C05D0A369002B02D1201C00F03EFA05AB201CA168049A019300F0E7FB16BC08BC04B01847C046B812002070B5051C0E1C002804D083699C
:40268000002B01D100F026FAAC68A3891B0702D52369002B19D1281C211C00F0AFF8002813D00120404245E03178002B1BDAA269934211DA221C281C00F048F8013042424D
:4026C0004241D0B20028ECD10136A3683278013BA360002AE8D10CE023681970236819780A2903D1E6E723681970236801332360EAE7002B17DAA269934208DB0A23226835
:402700001370236819780A2911D1281C01E0281C0A21221C00F01AF8013042424241D0B2002806D0BDE70A23226813702368013323600A2070BD000008B5034B011C18683A
:40274000FFF798FF08BDC046B812002070B5051C0E1C141C002804D08369002B01D100F0B9F9234B9C4201D16C6808E0214B9C4201D1AC6803E0204B9C4200D1EC68A36989
:40278000A360A3891B070AD52369002B07D023682269F6B2981A636998420FDB08E0281C211C00F02BF80028F1D0012040421DE0281C211C00F020F90028F6D1A3680130A1
:4027C000013BA36023685A1C22601E706369984205D0A389301CDB0708D50A2E06D1281C211C00F009F90028DFD1301C70BDC0463C5C01005C5C01007C5C0100354B70B52E
:402800001D68061C0C1C002D05D0AB69002B02D1281C00F05FF9304B9C4201D16C6808E02E4B9C4201D1AC6803E02D4B9C4200D1EC68A3899AB2110723D4D10607D4092243
:402840000120326037321343A381404240E0530713D5616B002908D0231C4433994202D0301C00F021FA002363632422A3899343A38100236360236923600822A389134361
:40288000A3812369002B0BD1A023A2899B00134080229200934203D0301C211C00F0ACF90123A289134005D00023A36063695B42A36103E0910700D46369A36000202369B7
:4028C000834205D1130603D540231A43A281013870BDC046B81200203C5C01005C5C01007C5C0100F7B58A89051C0C1C13075ED44B68002B02DC0B6C002B1ADDE76A002FBF
:4029000017D000232E682B6080235B011A4001D0626D15E0281C216A0123B847021C431C0ED12B68002B0BD01D2B01D0162B02D12E6000205EE04021A3890B43A38159E046
:40294000A3895B0706D56368D21A636B002B01D0236CD21A0023281C216AE76AB847A389421C06D12A68002A03D01D2A01D0162A19D10022626022692260DB0405D5431C75
:4029800002D12B68002B00D16065616B2E600029CFD0231C4433994202D0281C00F084F90020606326E040221343A38122E00F69002FBED00B680F60DB1B01930023920796
:4029C00000D14B69A360019B002BB2DD281C216A3A1C019BA66AB047002806DC40220120A38940421343A38104E0019B3F181B1A0193E8E7FEBD000038B50B69051C0C1CA8
:402A0000002B01D100201CE0002804D08369002B01D100F05FF80B4B9C4201D16C6808E0094B9C4201D1AC6803E0084B9C4200D1EC680C22A35E002BE4D0281C211CFFF7B9
:402A400051FF38BD3C5C01005C5C01007C5C010008B5024900F0AEF808BDC046F9290000002310B5041C03604360836081814366C281036143618361191C08225C30FFF7AF
:402A8000D7FD054B24626362044BA362044BE362044B236310BDC04685330000AD330000E53300001134000070B568254B1E5D430E1C291C743100F03DF9041E08D0002112
:402AC0002A1C016046600C30A0606832FFF7B0FD201C70BD836913B5002B28D18364C3640365134B134A1B6882620193984201D101238361041C00F01FF86060201C00F0DC
:402B00001BF8A060201C00F017F80421E06000226068FFF7A5FFA06809210122FFF7A0FFE06812210222FFF79BFF0123A36113BD385C0100512A0000F8B51D4B061C1D6881
:402B4000AB69002B02D1281CFFF7C4FF4835AC686B68013B05D40C22A75E002F10D06834F7E72B68002B06D1301C0421FFF79CFF2860002801D02D68E9E70C23336016E0DC
:402B80000123201C5B42E3810233A38167662760A760676027616761A7615C30391C0822FFF746FD201C6763A763A764E764F8BD385C0100F7B5041C071C002601914834CA
:402BC000002C16D06368A5680093009B013B00930DD4AB89012B08D90E22AB5E013304D0381C291C019B984706436835EDE72468E6E7301CFEBD0000F0B58B8991B09B07C1
:402C000006D50B1C47330B600B6101234B6145E00C1C0E23C95E061C002904DA8023A5891D4010D10CE001AA00F01EFC0028F5DBF023029D1B021D40194BED186B425D411B
:402C40008027FF0001E000254027301C391C00F071F800280CD1A3899A051FD402221343A381231C4733236023610123636115E080220C4BB362A38920601343A381206194
:402C80006761002D0AD00E23E15E301C00F0FEFB002803D00122A3891343A38111B0F0BD00E0FFFF512A000030B500293ED004390B68002B00DAC9181D4A1368141C002B26
:402CC00002D14B60116031E099420DD208680A189A4203D11368C3180B6053684B60216024E08A4203D8131C5A68002AF9D11D685C198C420BD1096869185818196090424F
:402D000014D110685268091819605A600EE08C4202D90C23036009E008680C18944203D114685268001908604A60596030BDC04618240020032370B5CC1C9C430834051C00
:402D40000C2C01D20C2405E0002C03DA0C2300202B6042E08C42F9D3204A1368101C191C002913D00A68121B0DD40B2A02D90A608B181FE08B4202D15A6802601BE04A6835
:402D80005A600B1C17E00B1C4968E9E7144E3368002B03D1281C00F0E3FA3060281C211C00F0DEFA031C421CD0D00322C61C964386420AD11C60181C07210B301A1D8843F8
:402DC000821A0AD05142995007E0311A281C00F0C7FA431CBAD0331CECE770BD1824002014240020936810B5013B9360002B05DA9469A34208DBCBB20A2B05D01368581C9A
:402E000010601970C8B201E0FFF7A0FC10BDF8B5061C0F1C141CD518AC4208D02178301C3A1CFFF7DFFF0134431CF5D100E00020F8BD0000F0B59FB0061C0F1C0292059377
:402E4000002804D08369002B01D1FFF743FE794B9F4201D1776808E0774B9F4201D1B76803E0764B9F4200D1F768BB891B070AD53B69002B07D0002306AD6B6120336B76EE
:402E80001033AB763DE0301C391CFFF7B7FC0028F1D001204042CAE0059A111D12680591002A7EDB0992013423782E2B00D189E021786348032200F00FFB002808D0604BA5
:402EC0000134C01A40238340181C2B68184328602178631C5B4806220293297600F0FCFA002800D191E0584B002B00D084E00722059B07339343083305936B69039A9B18BA
:402F00006B61029C2378002B04D1029BE31A049311D003E0252BF8D00134F3E7049B301C391C029AFFF773FF431C7BD06A69049B944663446B612378002B73D00122002374
:402F400052426A6002A95432521801342B60EB60AB601370AB6521783C48052200F0BCFA002809D0394B0134C01A01238340181C2B6818432860EEE72B68DA0604D553220A
:402F8000202102A8121811701A0704D553222B2102A81218117022782A2A00D17CE7099B05E05242EA60022213432B607BE72278303A092A04D80A214B4301349B18F6E7EA
:402FC000099371E763782A2B09D1059B02341A1D1B680592002B0DDA01235B420AE0002301342278303A092A04D80A214B4301349B18F6E707935BE705AB0093301C291C56
:403000003A1C134B00E000BF07E005AB0093301C291C3A1C0E4B00F08BF80390039B013300D06AE7BB895B0600D532E70B981FB0F0BDC0463C5C01005C5C01007C5C0100F7
:40304000A25C0100A65C0100000000009C5C01000F2E0000F7B5171C01930A698B6800900C1C934200DA131C221C3B6043321278002A01D001333B6023689B0602D53B6861
:4030800002333B60062523681D401ED0231C43331B785A1E9341226892061CD53020E1184031C870211C5A1C45310978A21840320233D1700FE0221C01230098019919328C
:4030C000089EB047431C0ED00135E3683A689B1A9D42F0DBDAE7221C009801994332089DA847431C02D10120404220E006232068E1683A6803400025042B03D18D1AEB4389
:40310000DB171D40A3682269934201DD9B1AED180027AF420ADA221C0123009801991A32089EB047431CDED00137F2E70020FEBDF0B58BB006920A1C4332079305900492F3
:403140000A7E0C1C109B6E2A00D1A8E011D8632A22D009D8002A00D1B2E0582A00D0C2E045310A707C4A4FE0642A1DD0692A1BD0B9E0732A00D1A7E009D86F2A29D0702AC0
:4031800000D0B0E0202209680A43226037E0752A1FD0782A33D0A6E00E1C1A684236111D196013683370A1E021681A68080606D4490604D5111D19600023D55E02E0111DCB
:4031C00019601568002D3BDA2D23049A6D42137036E021681A68080606D4490604D51568111D1960ADB202E0111D196015685A4B227E03930A276F2A1DD108271BE0221CC2
:40320000782145321170554A19680392081D226818600D68100602D4500600D5ADB2D30702D520231A4322601027002D03D1202322689A432260231C002243331A7002E0BC
:403240000A27454B03936368A360002B03DB0422216891432160002D02D1049E002B0ED0049E281C391CFFF7A3F8039B013E5B5C281C3370391CFFF715F8051EF1D1082FB6
:4032800009D12368DB0706D563682269934202DC3023013E3370049B9B1B23612BE009681A68080607D4490605D5111D19601368A28A1A8004E0111D1960136862691A6092
:4032C0000023049E236116E01A68111D196016680021301C626800F0FFF8002801D0801B6060636803E0261C42363270012323610023049A1370079B05980093211C069BD0
:4033000009AAFFF7A7FE431C02D10120404221E0236905980699321C079DA847431CF4D023689B0705D4099BE068984212DA181C10E00025E368099A9B1A9D42F3DA221C0F
:403340000123059806991932079EB047431CDCD00135EFE70BB0F0BDAD5C0100BE5C010038B50023064C051C081C2360FDF70CF9431C03D12368002B00D02B6038BDC04600
:403380006825002038B50C1C0E25495F00F0B0F8002803DB636D1B18636503E0A289024B1340A38138BDC046FFEFFFFFF8B51E1C8B89051C0C1C171CDB0505D50E23C95EC5
:4033C0000022022300F074F8A289054B281C1340A3813A1C0E23E15E331C00F01FF8F8BDFFEFFFFF38B50C1C0E25495F00F060F8A389421C03D1054A1340A38104E0802255
:4034000052011343A381606538BDC046FFEFFFFF08B50E23C95E00F015F808BD38B5051C0020074C2060081C111C1A1CFDF752F8431C03D12368002B00D02B6038BDC04637
:403440006825002038B50023064C051C081C236000F062F8431C03D12368002B00D02B6038BDC0466825002038B50023064C051C081C111C236000F057F8431C03D12368EB
:40348000002B00D02B6038BD6825002038B50023064C051C081C236000F04EF8431C03D12368002B00D02B6038BDC0466825002038B5051C0020074C2060081C111C1A1C10
:4034C00000F042F8431C03D12368002B00D02B6038BDC04668250020C9B28218904204D003788B4202D00130F8E700207047000038B5051C0020074C2060081C111C1A1C72
:4035000000F02AF8431C03D12368002B00D02B6038BDC0466825002058220120014B40421A6070476825002058220120014B40421A607047682500205822024B00201A609E
:403540007047C0466825002058220120014B40421A6070476825002058220120014B40421A60704768250020806B010034000000F8B5054633480E460078002802D00224D4
:403580002046F8BD002E5BD000242F49002D16D02A89D0070DD02868002808D003881B3BE12B04D24088FB2801D81B2801D2012409E0900707D56868002804D1F7E7002008
:4035C000088108604860002CDAD11F482F8907811C481B21801D018041800421017119490020891C0870F80705D016480622801D2968FFF714F81449B80703D56A68114856
:40360000127882700F480D46801D0860001F486002F0E8FA0B48801D02F0D6FA28890DF0CBFF28890EF044F90346103300F012FC1F21C018890140180249308088809FE7A1
:4036400001249DE76C0F002024130020FFB585B0002768460E9D07734C481C460078002802D0082009B0F0BD10990F9801900095029105A807C800F035FC0028F2D1694696
:40368000264603AB84460873002C19D0002115E08A00B75A082F09D990198078002805D0083FB7521878401C187005E0002915D00027B75290198770491CC9B2A942E7D322
:4036C00060460028CED10F9800280AD0109901F0A3FD0006000E04D00120C3E701208446EEE702F0FDF92948002101610C300599016021888180022D03D3A1798171A17A1A
:40370000C17100211EE0481C19E082008B00A75AE65ABE46BE4211D26F463E80B4461E190296B678BE7001967646E6521719029EBB78B3706646A652019EBE70401CA842A6
:40374000E3D3491CA942DED3114800906846037B22460799069800F04DFC002882D168460A4C007B60700A4802F0EAF90028B4D1204607490C3007F099FD0028ADD107F0E4
:40378000BBFD0028A9D1012121706BE76C0F00202413002010B507F0A7FD02F0A1F902F0EFF900F0B7FC00F0CFFC02490020087010BD00006C0F002010B507F095FD02F009
:4037C0008FF902F0DDF900F0A5FC0749074807F06DFD002807D107F08FFD002803D1034A01210C3A117010BD24130020780F002010B502F05FF910BD10B502F071F910BD9E
:4038000010B500F07DFC10BD10B50749044609780220002907D1204602F0BFF9002802D120460AF06BFE10BDDC10002010B502F05FF910BD1CB5FF20694608710020087051
:40384000FFF7DAFF6A4601A9062001F08DFA6946002008561CBD000038B504460120002C20D0617801291DD800290BD0FF25E535FFF7C2FF0C4828180088C0B220700728C9
:4038800003D00EE0FF25CD35F2E7002069460870684601F08BFB69460878012801D108202070002038BD000000102E40F8B504460120002C26D06178012902D92278092A82
:4038C00020D8002905D0FF25E5352078092803D004E0FF25CD35F8E708202070FFF78CFF2078114F114E08280DD0002000F01EFA70780128207810D00D4969180880FE2044
:4039000070700020F8BD012000F010FA0720B8810549203188800120F2E7B8810248217820308180EBE70000C0112E400810002000102E400121002807D005494A8842807F
:403940004A784270097801700021084670470000A60F0020F8B504460120002C52D0217808294FD2617804294CD26088102166283DD800283BD065882348662D45801BD8DF
:4039800001270026BF020A2D33D90A212846FEF70FFDC0B2072800D907200A2141438D4204D9691ACEB21F2E00D31F264101314339431648FEF764FB134D6078687021782A
:4039C00029701349496A8A0781001148920F11432430FEF757FB687800280CD0401E022181401820FEF7D4FDC000083804E06180C1E72946DCE7B82081B204482030FEF7C5
:403A000041FB0020F8BD0000A60F0020B8102E4040F02E4070B505460124FFF7EDFE002D04D0082128460EF013FE0024204670BDF7B582B069460AF064FB050041D1FFF705
:403A4000DBFE6846008803F02DFD040038D004F0CAF8002834D0FF278820493700593E46002805D01849897A890601D5878AC68A204602F0A9FA01280DD006F0C7F85021B3
:403A80000A5B617902F058FF283081B233463A46204605F05DFE20464030C28A04998A4200D9C182C18AA07805F030F80398012801D901200390A078039905F02DF900E01C
:403AC0000625284605B0F0BD8C170020F8B50E4669460AF016FB050033D1FFF78DFE6846008803F0DFFC040019D004F07CF8002826D01548F121807A0840C00621D5204679
:403B00004030418A008A491C41430804C00C0F4986420CD326822079072802D011E006250FE001200870204603F0C2F809E0002E07D100200870A078002104F0C9FB00E0AF
:403B400002252846F8BD00008C17002008100020F8B5012406460D46002925D013480078002808D0FFF748FE694630460AF0C9FA040003D018E000200880F8BD684600881E
:403B800003F090FC06000ED004F02DF800280AD00748F121807A0840C00602D5308A288002E0022400E006242046F8BD081000208C1700200121002807D0C221C170032164
:403BC000017001214170002181700846704710B501F0CAF9012801D101F0CCF910BDF0B589B015460F4606460124FFF705FE002E20D0002F1ED0002D1CD0102239466846C8
:403C0000FEF70DFD1022314604A8FEF708FD102168460EF041FF102104A80EF03DFF2B46102204A9684605F0A5FF102128460EF033FF0024204609B0F0BD000038B5FEF7CA
:403C4000DDFA01F0DBFF03211548FEF71BFA0120FEF7B4FA12483038406A04218007800F084381B200900E480C38FEF70BFAB8210C48FEF707FA0B48032109021438FEF724
:403C800001FA084C5321D83C2046FEF7FBF907210548FEF7F7F954212046FEF7F3F938BD70F02E40D8102E4098142E407CB5FF24069E079D00280BD0002909D0002A07D0F3
:403CC000002D05D0002E03D0002B01D01B2B01D9012406E00096019505F07BFF042800D1002420467CBD7CB5FF24069E079D00280BD0002909D0002A07D0002E05D0002D6D
:403D000003D0002B01D01B2B01D901240BE00096019505F017FF042802D0052802D002E0292400E0002420467CBD000010B50A4A141D012808D009491046FEF7A3F90849A9
:403D40002046FEF79FF910BD04491046891CFEF799F90349491DF3E788002E4031D000003AE3000010B5064A012805D01921C9021046FEF787F910BD1D21C902F8E700007C
:403D800090002E4001460120002903D0024A002012880A8070470000F010002010B50122002803D011490B88984201D9012010BD14234968434359182039C9890C4B99420C
:403DC00008D0DB1E994205D05B1C994202D05B1C994209D1C108074B44075A5C640F0120A04082435A540022104610BD3811002003280000FC1D0020014608B5012000298F
:403E00000AD0002003460090064A074800F0D8FA0006000E01D0022008BD034A0121521E117008BD51B300008110002010B5084C02202178012906D1607800F011FB0006F9
:403E4000000E01D0022010BD0021217010BD000080100020134A1088810703D08107890F401A001D11791030484381B25088820703D08207920F801A001D800040180A4996
:403E80004030098980B2CA0701D0503080B2890706D504495422091F09785143081880B270470000720F00202413002070B504460120002C12D02368002B0FD061680029E9
:403EC0000CD0074D06222889208118462968FEF7A6FB6968606809780170002070BD000024130020FFB58446384F1C460020BB883F78054602460646002F11D100290ED0EC
:403F0000029999420BD36146002908D0002C06D00A99002906D02E4B0B99994202D2012004B0F0BD002144E0AB001F19BF78002F3BD0E35A002B38D07B43591889B22B00F5
:403F400000F04AF8050410161C253100A7782388BC46FF27233BEB37BB4222D26346032B1FD322E0A388002B1FD0302B19D31CE02389002B19D0282B13D316E0A289002A74
:403F800013D01346134F233BBB420AD20DE0268A002A0AD033460F4F233BBB4201D2964203D901200EE0002001E000280AD16D1CEDB2099B9D42B7D31C2463435B18029996
:403FC0008B42ACD89642AAD8AAE700006C0F002079020000BAFF000030B47446641E2578641CAB4200D21D46635D5B00E31830BC18470000FFB583B0002469460C801F464B
:4040000006468C80002806D00598002803D004983043800701D0012467E0002FFBD03449049809888842F6D3FEF7E0F8FEF7CEF800F06CFC002856D100F0CAFD002852D157
:404040002C49084601F01CF905042D0C4BD12A480499066081800021C18007810C98007AC00704D0684601F054FD040007D10C98007A800703D501A801F054FD0446BF1DA6
:40408000FEB2002C21D13146059800F089F804001BD10DF01BFC0406240E16D16A461088928808368518144AF1B29088D288AEB29319984207D3401B801A80B201F0D2FB31
:4040C000050007D000E0FF25012400F0B7FA002D04D008E0F8B200F047F9F6E700F0DAFA06490120087000F023FC204607B0F0BD700F00208D42000030130020800F002075
:4041000010B503480078012801D101F04DFA10BD800F002010B500F0F9FD002803D100F00BFC002801D0FF2010BD0548007A801DC0B200F031F9034A0020107010BD00001B
:4041400030130020800F002010B500F0FBFD01F0C9F80449002008608880C88008810249087010BD30130020800F002070B5084B0446DA889E8800205518B54206D81D684D
:40418000AA182260DA885118D98070BD032070BD30130020014800897047000030130020F0B587B007460D4600208900009006916846FFF7DBFF844600285DD130480099D0
:4041C0000160002117E02E4B88001A680629115406D22C4C0419667882185670628805E0C419203CA67A8218567022891B68C018491C4280C9B2A942E5D300242DE0601C04
:40420000C2B2059025E01E4FA30039689600581840887118039604904E88B04217D938466F46FE80B6464F786E4677710297049F4F800168039F5E18767879184E70016841
:40424000764659184E800068029F18184770521CD2B2AA42D7D30598C4B2AC42CFD36046002809D168460699FFF780FF8446002802D1054900980860604607B0F0BD0000A1
:40428000840F0020085D0100880F00207047000010B5002809D005494A68002A05D0011F08788000105801F08BFA10BD840F002010B50446FFF76EFFC0B2801DA0420CD3F2
:4042C00007484068002808D0A100405801F0EAF9002801D00470001D10BD002010BD0000840F0020F8B516460D460446FFF752FFC0B2801DA04203D20020C0430090F8BDA8
:40430000B2B2E9B2684601F0F3F90099481C03D0024AA000526811500098F8BD840F0020F8B50746FFF736FF801DC6B20A49002005460C680DE06178002907D06188B94206
:4043400002D32078FFF7B4FF002804D1241D6D1CEDB2B542EFD3F8BD840F002010B5002801D0FFF795FF10BD70B506460948002504680BE06178002905D062882078121DC5
:404380000023FFF7AFFF241D6D1CEDB2B542F1D370BD0000840F0020F8B5084F064600243D6808E0287879688000085801F0B4FA2D1D641CE4B2B442F4D3F8BD840F0020AC
:4043C000FFB581B00A9C16002BD000F0F1F80546042826D0214F002C0BD02046FFF7A0FF2901C919486000281BD022460499FEF716F91A4928010E5046187481019805704E
:404400007D20029CC000444300F0C0F8009004280AD000F071FAA0420ED800F06DFA201A06E0FF2005B0F0BD204600F0CBFA0020B08135720020F5E700F05EFA074600F00D
:40444000D7FA381B87B23846012100F00BF900980101024808188781E6E700003C130020F8B5060117483418217A042903D0A089002802D018E00020F8BD00F03DFA0546A7
:4044800000F0B6FA00F0A2F804280DD001010D480F18B88941198DB2002100F0E3F80020B881284600F08EFA6068064D002801D0FFF754FF042020720020A8516081A08118
:4044C000D9E700003C130020FEB500266A46304601232549050169180D7A042D02D0898900291BD000211154401CC0B20428F0D300246846005D002830D01B482101081886
:4045000041894768056802910021016041600422418102728181002E02D015E01354E3E700F054F804280ED001010F480818019086890021304600F095F80198002181812C
:40454000304600F03FFA0126002D07D038460299A847002F02D03846FFF700FF641CE4B2042CC6D3FEBD00003C1300200EB5002005216A46009011815081034869460068DE
:404580000EF045F80EBD00008C0F0020074A0020010189180B7A042B02D08989002903D0401CC0B20428F3D3704700003C1300200549002002015218127A042A03D0401CE8
:4045C000C0B20428F6D370473C13002030B50A4B04200A4C00210A011219157A042D06D09289002A03D09A4201D808461346491CC9B20429EFD330BDFFFF00003C130020F0
:4046000070470000F8B500250B4F2E462801C419217A04290AD0042121723E506068002802D0FFF79BFE66606681A6816D1CEDB2042DEBD3F8BD00003C13002030B50020D0
:40464000074C05460423020111190B72A5504D60401C4D81C0B28D810428F4D330BD00003C13002030B5094C00231A011219157A042D04D09589002906D02D1895815B1C0A
:40468000DBB2042BF1D330BD2D1AF7E73C130020002070471CB5002469460C70142001902346054A05480DF0B7FF04480068401C00D1FF2420461CBD114700008C0F00202F
:4046C0003EB5124A0146FF2000230124126800290DD0012914D0042908D104206946009308814B8110460DF092FF80B23EBD6846009304814381694610460DF083FFF4E774
:4047000068460093048143816946EBE78C0F002070B545890468416800890300FFF75CFC08280509091E22282628002005F0D0FC1EE0022908D0C8B22A4621460CF0C8F8E5
:404740002046FFF70BFE13E002202A4621460CF0BFF82946204600F00DF809E000200DF03DFC05E02046FFF7AFFE01E0FDF760FD002070BD014B0022DB681847900F0020F0
:4047800070B5448905680089022803D0032809D0FF2070BD2246094C0023A46829460120A04708E0FFF728F8241DA2B200232946022006F02CFC002070BD0000900F0020F0
:4047C00070477047024800214160018041807047900F002070B50C46002186B016460391012802D0022859D116E003A9012006F06EFC01281BD1039D324621462846FDF761
:404800000EFF0095287801900220694608814E816846FFF7B5FF41E0214D002B686809D0049004A9022006F052FC01281DD0022006B070BD002812D0298840182146FDF791
:40484000EEFE28880024801980B228806988091D884206D12C801348FFF792FF03E00320E6E788421AD96C6018E004986860E278A378110219430B4A698000231060E35619
:404880005360032313815181A1788170E178C1706178417021780170042028800020C7E7900F00207C1300203EB515460C46022803D004280CD000203EBD00910190022085
:4048C0006946088107484A8100680DF0A0FE07E00BF0FEFF044B0022DB6829462046984701203EBD8C0F0020900F0020014AD16090607047900F0020034801688068081AE6
:404900000A214843000970478813002010B5FDF761FC482204490548FDF781FE03490120C870002010BD0000245D01008C17002010B5FDF747FC10BD0020704770B5134CBE
:404940002368002B08D0207B1149C20705D04008400020738868A08070BD88680B4AA18880B29268814203D90A4D691A091802E0814202D2411A5118A160A080A06898424A
:40498000EAD30DF061FE00F013F870BD88130020C0102E40FFFF000010B508461946FFF7A5FF10BD704710B5FFF77EFF10BD000003480021016041608160C1607047000003
:4049C00088130020024610B5FF20002A0CD0FFF7EFFF064C0321207B0843207310010A21FDF7E6FC2060002010BD00008813002000B504480A21806848430209FFF7D8FF46
:404A0000104600BD881300200248007B8007C00F704700008813002010B544490868002802DA434B01221A70022290430860414800693E49C00B4031096A08425ED00120FA
:404A400000F0D0FA3B483C497C30FDF71BFB37480E216C30FDF716FB364820218430FDF711FB344814219C30FDF70CFB3148FF21C131A430FDF706FB2E48FF212F31B0305A
:404A8000FDF700FB2B482D49BC30FDF7FBFA29482B49AC30FDF7F6FA29492648491CB430FDF7F0FA23482749B830FDF7EBFA21482549CC30FDF7E6FA1E4824490830FDF75B
:404AC000E1FA1C482249A830FDF7DCFA194821498830FDF7D7FA17481F498C30FDF7D2FA14481921C9029030FDF7CCFAFDF7CCFAFDF784FBC0B2022802D00FE0FF2010BD8E
:404B000016491748FDF7BEFA15481649001DFDF7B9FA134800210830FDF7B4FA54200449C043891C0870002010BD000000F02E40A00F002000002E405565000032030000DD
:404B40002F3F00003102000010520000EC160000FA12000031D000003AE300009956000080012E40F80F000070B50646581C80B245086D00002408E0304600F0C1F81055C0
:404B8000000A1119A41C4870A4B2AC42F4D3D80705D0D0182038D15CC47FD454C17770BD30B50A4C002100195B1E07E0541864782502545C2C430480891C89B29942F5DBDB
:404BC000994201D1515C018030BD000000102E4010B5FF2000F006FA0F49FF2048700E481021801D41800121417001700A490020C91C4870FFF710FF04000AD100F01AF94C
:404C000007210648FDF73CFA044807211830FDF737FA204610BD0000A00F0020CC112E4070B5002405465B1E0AE0284600F068F8010A161971702D1D1055A41CADB2A4B2B2
:404C40009C42F2DB9C4203D1284600F059F8105570BD000070B500210A4D5B1E0AE0541864782602545C344346193480001D891C80B289B29942F2DB994202D1515C401961
:404C8000018070BD00102E40F0B50599091FCFB200217E1E0BE0541864782502545C2C43164D45192C80001D891C80B289B2B142F1DBFC0712D01C78515C24020F4A0C4357
:404CC00081180C809C785D78001D210280B2294384182180001D80B2D9780CE059781A7809021143054A84182180001DD9789B78090280B2194380180180F0BD00102E4053
:404D0000014940180088704700102E4010B50B490020487000F08EF80020FFF707F80020FFF720F807210648FDF7AAF9044807211830FDF7A5F9002010BD0000A30F002050
:404D4000CC112E4010B506480078012803D102210448FDF797F902490020C91E087010BDA30F002070F02E4010B50B46062812D006DC01280CD0032801D1FFF7C7FF10BDA3
:404D80000A28FCD00B28FAD105480078107010BDFFF71EFF10BD1146184600F039F910BDA60F0020F8B5204DAC6A0127A0071F4E002816DA307806280ED1286A38432862BC
:404DC0001B480069F903084381B219481030FDF759F9042000F006F9134802212830FDF74FF9E00711D0062000F0FCF80F49FF20C91E48707078002802D1686B384368637D
:404E0000094801212830FDF73BF9E0050BD53078042802D1052000F0E5F80348FF2101312830FDF72DF9F8BD40F02E40A30F002000002E4010B503212348FDF723F90120FA
:404E4000FDF7BCF920483038406A204C80076178800F890001431C480C38FDF713F96078002808D0401E022181401820FDF790FBC000083800E0B82081B21548FDF702F937
:404E80001348032109021438FDF7FCF810481149B830FDF7F7F8612189010F48FDF7F2F80D480321001FFDF7EDF80C490C48FDF7E9F80B480B496038FDF7E4F80848012106
:404EC0008838FDF7DFF810BD70F02E40A60F0020D8102E4090890000041E2E40FF0F000058122E4020900000044800684007400F022801D0002070470120704700010B40E2
:404F000000B5FFF7F1FF002805D009480168C908C900016000BD0748016A490849000162054801690122D2039143016100BD000000010B4040F02E4000002E4008490878E5
:404F400006280BD148780749002803D1486B400840004863C86A01221043C86270470000A30F002040F02E400148007870470000A30F002002484078022800D0012070471E
:404F8000A00F002000B50300FFF726F8080D050D0B070507090D012000BD032000BD042000BD022000BDFF2000BD0000074A9168D26889B2064B92B2994204D105498A4283
:404FC00001D1012100E000210170704780002E4033D000003FE300000149487070470000A30F002010B50446FDF7F0F8072C01D9FF2C01D102480470FDF7E4F810BD0000A6
:40500000A30F00200149487070470000A00F002070B50C460546FDF7F1F8C0B202280E49287804D0FF2810D04C280CD810E0FF2809D10A4AD0680004800F032801D0087825
:4050400007E09069000A553803E00878207070BD4F382070087070BDA20F002000002E40F0B50122002830D000292ED00424420600D00524792342065B06D21800D0641C9F
:40508000034600221EE00C2516466E43104D00277519AF720E4F002ABB51696007D0661EB24209D10B4E86197606760E05E05E06760E8027BE1B00E080269B198919521C02
:4050C0002E81D2B2A242DED300221046F0BD00001416002079020000074900200C2242435218927A012A05D0401CC0B20628F5D3002070470120704714160020F8B50F00EC
:405100000446164609D0184D18496868A04202D94018A04201D38E4201D90120F8BD39462046FDF76DFA00281BD0324639462046FDF775FAF0B200210C224A435219138977
:405140005668F718A74208D90127A41B1B1B9772834206DAC01A1469C0B2491CC9B20629EAD30020F8BD0000141600207902000010B500F061F80748054AC16806480C4629
:40518000FDF74DFA04492046FFF76AFF10BD000079020000AC0F00209813002010B500F04BF810BD002070470020054A002902D0012902D002E0506000E090600020704779
:4051C000AC0F002070B5084C154608460549A26889182A46FDF723FAA0684019A06028B270BD000098130020AC0F00203EB50A226946FFF7E7FF044606480A2200686946A5
:40520000FDF7FEF9002802D00020C0433EBD20463EBD0000AC0F0020002802D0044A914201D2FF20704703490A61C8600020704779020000AC0F0020024800214160816072
:4052400070470000AC0F002070B5074C15460548626880182A46FFF751FF60684019606028B270BD98130020AC0F002010B503490A220968FFF7E8FF10BD0000AC0F0020A3
:4052800010B50F4A002313600E4A13600E4B18600E4801600E49012008600E490860000290600E490C4808600D4914300860FF381538506000F0BEF800F0CCF9002010BDC5
:4052C000D80F0020C00F0020EC0F0020F00F0020DC0F0020CC0F00205C170020D00F0020E40F002000207047014610B50020002910D0094B1A689C685118A14209D2586806
:40530000196080188A0704D08A07920F891A091D196010BD002010BDC00F0020F8B50024164E671E321F3D463168136806E01422624310328A58521C1BD0641C9C42F6D3D3
:405340006A1C14D02C461422544322460C3288500C214843FFF7C8FF3168002808510AD031680020103408517068401C70602846F8BD2546E4E73846F8BD0000D00F0020B8
:40538000F3B50026F64381B000281BDB1E490968884217D80299002914D01B4F142204463F1D54432546396810354859401C09D0FCF70CFF38682F1F4159C359994203DBFF
:4053C000FCF700FF3046FEBD214608310091465801590C20704308180C220299FDF71FF90948761C001D0068C159B14200D100260549009A091D865008684159491C41513C
:40540000FCF7E0FE0020FEBDCC0F0020002803DB07490968884202D90020C043704704491422091D096850431030085870470000CC0F0020F0B500200D4A451E0346171F82
:4054400050600FE014260146714314680E1DA3510C461668083433511668083435511468401C635039688842ECD30020F0BD0000D00F0020F3B50026F64381B0002841DBF0
:405480002349096888423DD8029900293AD0204F142204463F1D54432546396810354859401C2FD0FCF792FE3868415900292BD0211D009146580C21005971430F46C1197C
:4054C0000C220298FDF7ABF811480021001D0068761C00590C34C0190160416081600C48001D00680159B14200D100260849009A091D865008684159491E4151FCF762FE0D
:405500000020FEBD3046FEBDFCF75CFEFAE70000CC0F0020FEB504460D4600201E49089E0860471E009001900290002C11D0486885420ED2002A0CD0002E0AD0642E08D855
:4055400008460C3001681C2068430C18207A002801D03846FEBD0120226020721846FFF7DDFE6060401C13D06681A6810A4827610C3067610179A94200D205710021684696
:4055800001810A462846029B00F040F82846FEBD00202072DDE70000D80F002038B50124009400F039F838BDFEB50027164EFF433D4600240EE01C20316860430818017A5C
:4055C000002906D04068FFF721FF002801D0254603E0641C3079A042EDDA681C12D01C2130684D434419FCF7F1FD69466068FFF741FF0546FCF7E6FD002DD9D121686846F0
:405600008847D5E7FEBD0000E40F002038B50024009400F001F838BD1FB500220C49541E0A60002811DB496888420ED808491C220C31096850430818406801A9FFF7A0FE1C
:40564000401C02D0002004B010BD2046FBE70000D80F0020F0B50021114A4D1E174611710C3F0B46BD6016E008461C2460431668041D355114680646235014680836A355AF
:405680001468361DA353044616680A34335318301468491C255078688142E5D30020F0BDE40F002038B500210091002811DB0F49097888420DDA0D4D04010C3529680859F1
:4056C000002807D0201D0818694600F06FF9002801D0002038BDFCF779FD28680F34015D491E0155FCF76EFD009838BDF40F0020F7B582B0002502986E1E06602E48D21CE1
:40570000024017462D4A2C4610460C380178106805E02301C358002B0FD0641CE4B28C42F7D3711C28D03401211D40180191039900F02AF900281FD101E02646F1E71F4845
:40574000016820460C300F521C480399026820460E30115419480399026820460F3011540398784300F0A0F8144900280968085102D00024009011E001251AE00F48016855
:4057800001980818009900F02CF9002801D0012502E00098C0190090641CE4B203988442ECD3002D05D10298066004480179491C0171284605B0F0BDFCFF000000100020AF
:4057C000F8B50D4600216A468C461180002839DB23490978884235DA214B04010C3319680A59002A2ED020460C300B5A801C0E5C184670438018954224D3854222D2002058
:4058000006E007465F43BF18AF4206D0401CC0B2B042F6D36046002814D0114E271DC8190C366A46294600F006F900280AD168460088012808D030682946C01900F0D1F813
:40584000002803D00120F8BD0020F8BDFCF7BEFC30680F34015D491C0155FCF7B3FCF3E7F40F0020F8B50F46002400F031F8002817D10C4900220B460C334A600EE0210132
:405880001D680E466A501D680C36AA53B61C1D680F31AA551D68641C6A54E4B2BC42EED31A71F8BDF40F002000280BD0C01C074A81085068890053884118994203D89368A1
:4058C000516018187047002070470000F40F0020F8B5064600200F4D009029700C0121466846FEF743FC00280CD129460C3100980860301B001F84B221466846FEF736FC95
:40590000002801D0FF20F8BD6C800098A8600020F8BD0000F40F0020F8B5002827DB19490978884223DA174C05010C342168485900281CD028460C30085A009028460E3066
:405940000E5C401C0E5420682F1DC01900F064F800280CD12068002445590EE0094829460C300068C01900F03CF8002801D00120F8BD00982D18641CE4B2B442EED30020CF
:40598000F8BD0000F40F002030B50D4604000BD0A800FFF789FF6060002805D000202570C0436080002030BD012030BD70B50D46040005D0002D03D00220205E002801DA6E
:4059C000012070BDFCF702FC0221615E60688900405828606088401E6080FCF7F3FB002070BD70B50D46040007D0002D05D002212078615E401E814201DB012070BDFCF7B4
:405A0000E5FB6088401C00B26080616880000D50FCF7D8FB002070BD10B5040009D0227800216068FCF704FE0020C0436080002010BD012010BDF0B500231D46002802D0DA
:405A40000224045F0AE00120F0BD46689F00F6598E4201D1012503E05B1CDBB29C42F4DA15700020F0BD00000148007870470000081000207CB505460024FDF7BDFEA8797C
:405A80006946087000A8062229460130FCF7C7FD0021684604F0E2FD0C2804D0072804D01F2804D004E0022402E0042400E0272420467CBD10B502280BD0032802D00428FF
:405AC00009D102E000F0E8F805E000F093F9FF2801D100F0A3F9FFF747FAFFF753FA10BD10B500F0CBF9FFF73FFAFFF74BFA10BD70B504460025FDF77FFE002C06D0A0791D
:405B0000012803D8214602F06DFC00E00125284670BD01460120002902D05020088000207047000001460120002905D0034854220078504308800020704700000A10002001
:405B400010B502460D49FE204870032410460DF081F8002810D10DF025F800280CD105F013FB002808D100F093FB002804D104F0F9FF002800D10024204610BD08100020DE
:405B800010B5FF240DF0DEF8002804D10DF0F8F8002800D10024204610BD70B50025044600280ED0A07901280BD8FDF725FEA0790028204602D002F0F1FF03E002F0C6FF25
:405BC00000E00125284670BD014610B50120002904D006220248FCF722FD002010BD00000C10002001460120002903D00878024908700020704700000A10002010B500248C
:405C000003F0FAF8002800D00124204610BD000070B50E46050001D0002400E00C4C002C11D0E28A500609D5D107C90F022003F053F8E08A40218843E08204E0D107C90F3B
:405C4000012003F049F83146284602F027FD70BDF4170020F8B50546002004460D4E009013E022466946284601F04AF80098002801D00CF0D1FFA878214602F0FDFAA87897
:405C8000214602F0EBFA641CE4B2308AA042E8D8F8BD0000AC180020FEB54E4DFFF764F9012849D14C480078002845D002F07EFC002841D004F04AF900283DD0474C6078F2
:405CC000C00703D000F0E6FC012835D0207E00287DD16078002600285BD0000706D540488089070B00F02EF9384370D13B484178684603F095FF044628793A4DA9784018F1
:405D0000C1B2A14261D802F051FC00285FD0344860300089314F0190203702F09DFA6846008802F0C7FA02F057FB2F490988884203D10120FFF756F949E02C490120087047
:405D40002648807B00281BD00198002818D04037F87E002814D12248603000884000A0420AD96878002807D102F0E4FF2049088A03221202104308822878002800D02E7081
:405D800002F0C6FA0120FFF727F900F0F5FB174C15E002F00BFC002819D0102402F01CFB214602F011FA02F085FA104C0120207002F0AEFA0020FFF70FF900F0DDFB207881
:405DC0000128B6D1FFF79CF826700020FEBDFF20FEBD0000CC170020A00F0020D4170020A0102E40181000202A10002012100020E0112E4010B50848FF244078002809D1EE
:405E000002F0D4FB012805D1FEF79CFF0720FFF7E9F80024204610BDD417002038B5FFF7A3F8012801D0002038BD02F0BFFB00280AD0114C6078C00703D000F02BFC012868
:405E400002D0207E002801D0FF2038BD617800290FD0684603F0E4FE022806D96846008802F028FA012002F059FA0320FFF7BAF8D9E70020F7E70000D417002038B51E4C9D
:405E8000FFF772F8042813D0052811D0062812D003282AD007280AD100206946087002460120FEF761FFFFF75FF80128FBD138BD00F082FB38BD02F049FA00F07DFB02F0F9
:405EC000C5FA8007800F0228F4D10C4841880029F0D05B21095D0029ECD101210170A07D0140022002F0F8FE38BD02F033FA0120FFF778F838BD0000F41700201810002012
:405F0000F8B50646002402F055FF0546304602F06BFF03460A480021068A0DE001228A401046174628401F40002803D0002F01D1224394B2491CC9B28E42EFD82046F8BD08
:405F4000AC18002070B500252C460A4E03E0002C01D0002000E030460079002803D02046FFF7CEFF0543641C2406240EEFD0284670BD0000F41700201CB500206946487035
:405F80006846FDF769FC01AA69460A20FEF7ECFE6946042008561CBD10B50C4601F082FA002809D00179002906D0C1788078224602F0FAFB002010BD022010BD0148007852
:405FC00070470000CC1700204030C07E002800D00120704700B500F001F800BD8C2148430749084A40186030417F491CC9B24177D289914201D300214177C8B270470000E8
:40600000D4170020AC18002013B501F04BFA04000BD001F0E8FD002807D0214601AA0A310620FEF7A1FE00201CBD02201CBD000010B50C4601F036FA00280AD001F0D3FDC9
:40604000002806D0224604490A20FEF78DFE002010BD022010BD0000B5170020F3B581B0074601460026029802F09CFE0446002F01D0002500E0154D002D21D0284601F014
:4060800047FA032C04D13946029802F0E7FE06463846029902F0E2F8032C06D0002C10D00121384601F03AFB03E03146384603F0D1F8284601F0C0FF0221284601F0D6FF9A
:4060C000FEBD3846029902F0C9F8FEBDF417002010B5044603F008FD002801D00C2010BD2078611C02F062FCFF2801D01F2010BD02F0A8FCFF280AD02178621C02F036F803
:40610000044821780068026B601C904710BD072010BD00003010002010B503F0E5FC002801D00C2010BD02F023FC03480068C06A8047002010BD00003010002070B50D462C
:40614000044610210CF0A8FC1021601806460CF0A3FC334610221946204603F00BFD102130460CF099FC02202870204604F052FC70BD0000F8B50446407821780202800670
:40618000870FE0781143A67809050002090D0643084601F087F900210546F2B2002812D0002C10D0022F0ED0032F0CD0002A0AD00279092A07D0002A05D0134A5A23527EDC
:4061C0001B5C9A4207D82889002104F058FB20460CF022FDFF21002914D10C48224600682946436930469847C0B2FF280AD128464030817EF2B2491C8176FF2321462846C9
:4062000000F0DDF8F8BD00008C170020481000200020704710B5044603F066FC002801D00C2010BD2078611C02F0C0FBFF2808D002F0F8FA044821780068426B601C90478A
:4062400010BD1F2010BD00003010002010B504F089FC00F057F9002010BD10B5044600786178E2780843A17811430843217908436179084305D003F029FC002803D00C209F
:4062800010BD122010BD204602F088FC002010BD10B5FBF7B3FF02F0AFFD044803F0AAFD02F0CAFA012000F003F810BD9C170020F1B586B003A8009005A8019025489F2277
:4062C000817A114081726846FDF7F0FD00283FD169460989C90705D01F4806990068C2686846904769460989890706D500282FD11A480068816A06988847002828D1184E18
:406300000025757075737571F575357675767575B570F570B5713746F5730120BC3738731F20F880FF2130467972A0300175457500F076FA00242046069901F0FFFB002873
:4063400003D1641C2406240EF5D0FD72BD72B57307B0F0BD8C1700204810002030100020D417002070B505460E46084602F022FD0446304602F038FD0121A9400A46224011
:4063800001400A4301D0012070BD002070BD10B50446084602F028FD0121A140014201D0012010BD002010BD10B5FEF7DDFD032804D101F0CFFF0120FEF714FE10BDFEB582
:4063C0001C4616460F46054601F036FEA878FFF701FE02460190334639460094284600F00DF8002808D1A8780199FFF711FCFF2C02D138460CF010FCFEBD0000FFB585B057
:4064000005460E980C46FF2810D02B49C00009680A5840180179C0795278814201D9012601E09006860F6846038108E06078A1788006860FE0780002014368460181284604
:4064400001F0DCFB070007D021462846079A00F0EBFB384609B0F0BD304600F099FC04AE0346039002AA29460096204600F025FB3C20405D002818D0284601F0BFFB01284B
:4064800013D0684600890096C0B20190A878231DFF22079902F0B6F868460089039BC2B2A878079902F0F6FBD3E7684600890021C0B20091E9E7000044100020F8B5104F17
:4064C000002500242846FFF71BFD060012D00EE03046E040C007C00F07D02146284601F0B3FE21462846FFF7B9FD641CE4B2388AA042EDD86D1C2D062D0EE2D0F8BD000029
:40650000AC18002010B502F097F90020FFF7D0FE0CF018FC002010BDF8B5002400F0B4F80123012800D10124104F00203E4620360425082203E0002801D0002100E031469F
:406540000979002907D001290BD002290BD0114681402143CCB2401C0006000EEBD07C70F8BD1C43F7E72C43F5E70000D417002010B5FFF7D1FF10BD70B50E4CFBF779FDF6
:406580000546FEF7F1FC062802D02078012803D02846FBF772FD70BDFBF7F0FA2846FBF76CFDFEF7E1FC0628F5D020780028E5D170BD00001210002010B5FBF75AFD044677
:4065C000FEF7D2FC012809D0FEF7CEFC022805D0FBF7D4FA2046FBF750FDEEE72046FBF74CFD10BD10B50B4681791943817103D08078114602F01CFB10BD10B582798A438D
:40660000827102D1807802F027FB10BD30B50C4C0220A28A0B4B9978002901D0022906D11D785B78EB18282B01D9032002E0032900D101205105490DC0020143A18230BD50
:40664000C0112E401310002000B500F023F8002807D0012805D0032801D0042801D0002000BD012000BD014600B50020C90701D000F00AF800BD014600B50020C90701D0FE
:4066800000F002F800BD000001480088000A704720102E400448008B410501D5042070474007800F7047000000102E4038B50446000610D5FFF7EEFF01280CD1684601F080
:4066C00059FE6846007800F0B3FA012001F01CFD0220FFF74DFF0348006801692046884738BD00003010002010B5034A0178117002F0C0F9002010BD1310002070B50446F4
:40670000FFF7C2FF002801D00C2070BDA27B01211F48002A827801D00A4301E05208520082706279012A14D0C17849084900C170184D2868016820468847207901280CD0CA
:406740006188208803F000F82080207904280FD015E0C2780A43C270EAE72868C168E01D8847E01D02F006FA0B48808C208006E02868C168E01D8847E01D02F0FBF90749C9
:4067800020798870204602F083F9002070BD0000D4170020301000208C1700201310002008B50178FFF770FF814201D10C2008BD002914D0072069460870FFF745FF0128D7
:4067C00007D10121684600F08BF8012801D0092008BDFFF71BFF02F08FF9012011E0FFF733FF012806D1684601F0C4FD6846007800F052FA02F076F9FFF746FF0028FBD180
:406800000220FFF7B5FE002008BD000010B5034A0178517002F0ECF9002010BD1310002038B568460CF08EF9002801D01F2038BD01210098C90201804180002505714571F2
:40684000857107214173857302F022F9009C202200212046FBF7ECFE25702A460021601CFBF7E6FE204602F005F9204602F0C0F900980CF0D1F9042200210248FBF7D8FE6A
:40688000002038BD131000200346084800B5834209D8184600F006FE002804D00089984201D1012000BD002000BD0000FF0E0000074A9179491C8906890E917138220A40B5
:4068C00092014907090E11430843024908407047D4170020FF0E0000C006C00E70470000F8B507460E4600240D4803E0002C01D0002500E005462979002905D0641C240611
:40690000240EF3D00020F8BD0021204601F016F92E712046FFF7CCFF28813C700120F8BDF417002010B503F071F90222002100F003F801F02DFF10BD10B5094B40074907FE
:40694000000F090F185A595A40185043C0086421FBF72EFD002800D1012080B210BD00006C5D0100F7B53D20405C88B015460C46002802D02878042802D200200BB0F0BDE7
:406980006946087200262046FFF71EFB012800D00126204603A938300191009023460327A17E34333246206A03F03EFA02A8089900900B46019120463A4603A9243003F07A
:4069C000A1F802466846007A2870204601F0A2F81046D3E7FFB587B00C4605461078694608723D20005D1746002826D000262046FFF7EAFA012800D00126204603A9383087
:406A0000019100902346A17E34333246206A03F00BFA02A80090291D019120462B1D03A924300A9A03F06EF802006846007A388002D1204601F06EF810460BB0F0BDF0B5B9
:406A400005463C20405C89B016460C4600280CD0307869460873002806D000272046FFF7B3FA012803D003E01F2009B0F0BD012703200890204604A938300191009023467B
:406A8000E17E34333A46E06903F0CEF96846007B03A928180290009120462B46019504A92430089A03F07AF802466846007B3070204601F039F81046D7E7FFB505463C20D8
:406AC000405C89B016460C46002810D0084601F095F801280BD0308869468883002809D000272046FFF770FA012805D005E000200DB0F0BD0220FBE70127204603A93830C8
:406B0000019100902346E17E34333A46E06903F08BF9291D2B1D07A8129A6D4607C5204603A924300C9A03F039F802466846808B3080204600F0F8FF1046D9E770B50D46A0
:406B40000446FFF741FA01280AD0E87AA97A00020143A07801F008FD012808D0002070BD00222421204602F041FD242070BD28214C200155204600F0A3FB282070BD00008E
:406B8000002801D0002000E003484030C07F012800D0002070470000F41700200146002049070ED50021084B03E0002901D0002200E01A461279022A04D0491C0906090E84
:406BC000F3D0704701207047F41700200146002049070ED50021084B03E0002901D0002200E01A461279022A04D0491C0906090EF3D0704701207047F417002010B5044629
:406C000080346068002803D00CF01AF80020606010BD4030417070474030817070474030017070470171704792001018C166704770B53C2501F080F9040004D0204600218A
:406C4000433001F031FCFF222946204600F0D4FB002C02D0A07801F0F1F870BD10B5002801D0002000E00348002802D0008903F04DFE10BDF417002010B5002801D0002011
:406C800000E00448002804D00179072901D100F047F810BDF417002010B501F04DF9002802D0807801F0CAF810BD00207047000070B50546008A00281ED01049F122897A45
:406CC0001140C90618D5294640314A8A098A521C4A4392B2D10800D10121540801E0621A94B2A042FBD9FEF7BFFE012804D1298AA878224601F00EFD70BD00008C170020A9
:406D000010B50023054C0B60248A944204D992001018C26E0A60C36610BD0000AC18002038B5044600200090A079002814D14020015D052901D00E290ED168460BF012FF86
:406D4000002809D12046009902F02EFC03481021C28A2046FFF746FC38BD00008C17002010B50B4604460146184602F0ABF8002802D020460BF05AFF10BD13B5044601AA00
:406D800011460620FDF7F0FF6846818861811CBD002800D10220704770470000F8B504462346401D543300909A1EA078911E01F0FDFA25464035A88A298A8000FBF7F8FA14
:406DC000401E81B2688A884203D96982A07801F0BDFF20460021433001F066FB27480088E88102F013FFE989891C8AB26179FFF7A3FD01F0CDFC02F009FF2A8A6179FFF70F
:406E00009BFD074601F0B8FC688A002806D01C49088A032212021043088202E0002001F089FF1748803801886E8A002E0CD0304648431449FBF7ACFB0004000C01D0401C7A
:406E400080B21149488002E00F4800214180288A704381B2A07801F0D9FEFF2228374932B9B21346204602F073FCE98AA07801F04DFEA07801F012FAF8BD000080102E4016
:406E8000E0112E4071020000181000207FB504468034616805460E46183108226846FBF7BEFB31462031082202A8FBF7B8FB102168460BF0F1FD6068102108300BF0ECFD34
:406EC00060682B46083024331022694602F052FE7FBD10B504460821FFF78FFB10212046FFF78BFB207905281FD006281DD008281AD12189002003F081FC0720207120465D
:406F0000FFF762F8014620464030012913D00E21017000210176204600F0A2FF2046FFF76DFE2046FFF7C4FE10BD20890122002103F048FCE1E70521EAE70000FFB581B02E
:406F40001F4604460821FFF758FB10212046FFF754FB2079082803D0092804D0042203E00422012501E009220025204600F032FE264600204036307022712046FFF73EFE9A
:406F80000398002D02D0012808D00BE001280AD120890022029903F015FC04E02189029803F02CFC012700203076012F04D0204600F056FF05B0F0BD02983073204602F006
:406FC00041FB054605480121C28A2046FFF70AFB002DEFD109202071ECE700008C17002070B50C460546FEF7EFFF012809D108212846FFF702FB0023012221462846FFF76E
:407000009DFF70BD10B5044600F0E4FD2046FFF7F5FD00214034217010BD70B505461A24FEF7D2FF012809D108212846FFF7E5FA0023012221462846FFF780FF70BD0000C6
:40704000F8B50446002000900E4668460BF08AFD002801D00D20F8BD8420005908212030009D00F01AFA20460421383000F015FA002E02D1204600F0E9FD2946204602F0FD
:4070800022FA0E480821C28A2046FFF7ABFA204600F057FF25464035002808D0204600F023F8002801D0092028700020F8BD08202870204600F0C0FFF7E700008C170020E6
:4070C000014610B540310A460978082906D0092907D00A2901D100F091F810BD0B20107010BD00F001F810BD70B50446007925464035052805D0062803D008280FD00C20B3
:4071000070BD03220621204602F070FA0D480821C28A2046FFF766FA1120287010E006202873204602F08EFA0646AA8A0A20424301212046FFF756FA002E01D1092020717D
:40714000002070BD8C17002038B504460020009068460BF007FD002801D00D2038BD2046009D00F0B1F908202071204600F06EFD2946204602F0DAF900213D2001550F209C
:4071800040210855204600F057FF002038BD00B5024600F01FFD10214032117000BD10B50446FEF711FF012809D04020005D112805D100231A4606212046FFF7BFFE10BDF4
:4071C00010B5FFF786FE10BD38B504460021684600910BF0C7FC00280CD12046009902F026FA05480821C28A2046FFF7FBF90D204034207038BD00008C17002038B50446E6
:407200000021684600910BF0ADFC002801D00D2038BD2046009902F0FFF905480821C28A2046FFF7DFF90C2040342070002038BD8C17002000787047F8B50025002801D04E
